:020000040800F2
:100000006008002045010008C5020008BD02000884
:10001000C10200088D0100081F0800080000000050
:100020000000000000000000000000005701000870
:100030009D010008000000005B010008C9050008E0
:100040005F0100085F0100085F0100085F01000810
:100050005F0100085F0100085F0100085F01000800
:100060005F0100085F0100085F0100085F010008F0
:100070005F0100085F0100085F0100085F010008E0
:100080005F0100085F0100085F0100085F010008D0
:100090005F0100085F0100085F0100085F010008C0
:1000A0005F0100085F0100085F0100085F010008B0
:1000B0005F0100085F0100085F0100085F010008A0
:1000C0005F0100085F0100085F0100085F01000890
:1000D0005F0100086D0600085F0100085F0100086D
:1000E0005F0100085F0100085F0100085F01000870
:1000F0005F0100085F0100085F0100085F01000860
:100100005F0100085F0100085F0100085F0100084F
:100110005F0100085F0100085F0100085F0100083F
:100120005F0100085F0100085F0100085F0100082F
:10013000DFF80CD000F018F800480047190C000850
:10014000600800200648804706480047FEE7FEE7B3
:10015000FEE7FEE7FEE7FEE7FEE7FEE7FEE7FEE777
:100160000D06000831010008064C074D06E0E06866
:1001700040F0010394E8070098471034AC42F6D3EE
:10018000FFF7DAFF8C0C0008AC0C000800BFFEE79C
:1001900010B54FF4A06000F0CFF810BD70472DE906
:1001A000F0410246002500260020002300240027FD
:1001B00091F803C00CF00F0591F803C00CF0100C7F
:1001C000BCF1000F03D091F802C04CEA050591F88C
:1001D00000C0BCF1000F31D0146800202BE04FF0BC
:1001E000010C0CFA00F3B1F800C00CEA03069E42C1
:1001F00020D183004FF00F0C0CFA03F7BC4305FA33
:1002000003FC4CEA040491F803C0BCF1280F06D1AA
:100210004FF0010C0CFA00FCC2F814C00AE091F88F
:1002200003C0BCF1480F05D14FF0010C0CFA00FCE3
:10023000C2F810C0401C0828D1D31460B1F800C027
:10024000BCF1FF0F34DD546800202EE000F1080CF3
:100250004FF0010808FA0CF3B1F800C00CEA0306ED
:100260009E4221D183004FF00F0C0CFA03F7BC43E0
:1002700005FA03FC4CEA040491F803C0BCF1280F12
:1002800005D100F1080C08FA0CF8C2F8148091F8B6
:1002900003C0BCF1480F07D100F1080C4FF0010872
:1002A00008FA0CF8C2F81080401C0828CED354601D
:1002B000BDE8F081416170470161704700BFFEE712
:1002C00000BFFEE77047000070B5002100230F2239
:1002D000C47804B3154C246804F4E064C4F5E06405
:1002E000210AC1F10403CA40447804FA03F1847876
:1002F0001440214309010E4C0678A155047804F0FE
:100300001F050124AC4005786D11AD0005F1E02515
:10031000C5F8004109E0047804F01F050124AC4051
:10032000044D0678761145F8264070BD0CED00E0CE
:1003300000E400E080E100E002490143024A11606C
:10034000704700000000FA050CED00E029B1064AF4
:1003500092690243044B9A6104E0034A9269824322
:10036000014B9A61704700000010024030B5002137
:100370000022002400232D4D6D6805F00C0121B1F1
:10038000042905D0082923D105E0294D056022E084
:10039000274D05601FE0254D6D6805F47012234D53
:1003A0006D6805F48034022505EB92421CB9214D9D
:1003B000554305600BE01D4D6D6805F400351DB11A
:1003C0001C4D5543056002E0194D5543056002E0A0
:1003D000174D056000BF00BF144D6D6805F0F001BA
:1003E0000909154D6B5C0568DD4045600F4D6D6872
:1003F00005F4E061090A104D6B5C4568DD408560DD
:100400000A4D6D6805F46051C90A0B4D6B5C456877
:10041000DD40C560054D6D6805F44041890B074D11
:100420006B5CC568B5FBF3F5056130BD001002409B
:1004300000127A0000093D0000000020100000209A
:1004400010B500F001F810BD0CB50020019000902F
:100450003348006840F480303149086000BF3048BC
:10046000006800F4003000900198401C0190009852
:1004700018B90198B0F5A06FF1D12948006800F4CF
:10048000003010B10120009001E0002000900098A1
:10049000012843D12348006840F01000214908603A
:1004A0000846006820F0030008600846006840F035
:1004B000020008601A4840681949486008464068C8
:1004C00048600846406840F48060486008464068DC
:1004D00020F47C1048600846406840F4E81048600A
:1004E0000846006840F08070086000BF0C48006853
:1004F00000F000700028F9D00948406820F003009F
:10050000074948600846406840F00200486000BF64
:100510000348406800F00C000828F9D10CBD000029
:10052000001002400020024010B5FFF731FE00F03D
:1005300013F800F017FB00F0D5FA10BD002181F38D
:10054000108800BF0349086000BF024909680029FC
:10055000FBD170472000002070B5002100BF05E0EE
:100560000020154A42F82100481CC1B20529F7DBDA
:10057000124AB2F1807F00D31DE022F07F40401E7E
:100580004FF0E023586158170F23002807DA1C07A3
:10059000260E0B4C00F00F052D1F665503E01C07BF
:1005A000250E084C255400BF00204FF0E023986131
:1005B0000720186100BF70BD200000204019010015
:1005C00018ED00E000E400E000200CE00D4951F8D7
:1005D000201031B10B4951F82010491E094A42F848
:1005E0002010411CC8B20528F0DB07490968064AFB
:1005F0001268521C044B491C1A6011B900211A469A
:1006000011607047200000201400002010B513482E
:10061000006840F001001149086008464068104930
:1006200008400E494860084600680E4908400B49DA
:1006300008600846006820F480200860084640688A
:1006400020F4FE0048604FF41F008860FFF7F8FEBA
:100650004FF000600449086010BD00000010024027
:100660000000FFF8FFFFF6FE08ED00E010B52021C6
:100670000B4800F02CF838B1094800F0C7F8C4B2B4
:100680002021074800F00EF80821054800F01FF867
:10069000012803D10821024800F004F810BD000031
:1006A0000038014001F40072B2F5007F00D100BFB4
:1006B000CA430280704721B1828942F4005282818C
:1006C00004E082894DF6FF731A408281704702462A
:1006D0000020B1F5007F00D100BF13880B400BB1A3
:1006E000012000E000207047F0B5034600240026FA
:1006F0000025002040F66A17B94200D100BF184615
:10070000C1F3421401F01F06012707FA06F5012C78
:1007100001D10C3004E0022C01D1103000E0143083
:100720001AB107682F43076002E00768AF4307600C
:10073000F0BD00002DE9F04786B005460E460024C6
:10074000A24600BFA1460027B08900B100BF2F46D6
:100750002C8A4CF6FF700440F08804432C82AC894C
:100760004EF6F3100440B08831890843718908437C
:100770000443AC81AC8A4FF6FF400440B089044387
:10078000AC8201A8FFF7F2FD1F48874202D1DDF8D5
:1007900010A001E0DDF80CA0A88900F4004040B1F1
:1007A0000AEBCA0000EB0A1031684900B0FBF1F80F
:1007B00007E00AEBCA0000EB0A1031688900B0FBC1
:1007C000F1F86420B8FBF0F004012009642101FB7A
:1007D0001089A88900F4004040B1322000EBC90024
:1007E000B0FBF1F000F00700044308E0322000EB1A
:1007F00009106421B0FBF1F000F00F0004432C81DC
:1008000006B0BDE8F0870000003801400146888846
:10081000C0F308007047C1F308028280704700BF30
:10082000FEE770B504460D4629462046FFF7F3FF64
:1008300000BF40212046FFF74AFF0028F9D070BDD5
:1008400070B506460C46002504E0615D3046FFF7B2
:10085000E8FF6D1C605D0028F7D170BD02E008C89C
:10086000121F08C1002AFAD170477047002001E02A
:1008700001C1121F002AFBD17047000010B586B0DD
:10088000044601210420FFF761FD01218803FFF7E1
:100890005DFD18208DF817004FF40070ADF81400BE
:1008A00003208DF8160005A91F48FFF778FC0420E7
:1008B0008DF817000002ADF8140003208DF8160023
:1008C00005A91948FFF76BFC01940020ADF808005A
:1008D000ADF80A00ADF80C000C20ADF80E004FF496
:1008E0008070ADF8100001A91048FFF723FF012028
:1008F0008DF803008DF801008DF8020025208DF899
:1009000000006846FFF7E0FC012240F2255107484D
:10091000FFF7EAFE01210548FFF7CDFE402103481D
:10092000FFF7C0FE06B010BD0008014000380140CE
:1009300010B586B0044601210420FFF707FD012110
:100940004804FFF703FD18208DF817000420ADF8C8
:10095000140003208DF8160005A92048FFF71FFC9E
:1009600004208DF817000820ADF8140003208DF83E
:10097000160005A91948FFF712FC01940020ADF8F4
:100980000800ADF80A00ADF80C000C20ADF80E0020
:100990004FF48070ADF8100001A91148FFF7CAFEAE
:1009A00001208DF803008DF801008DF8020026204B
:1009B0008DF800006846FFF787FC012240F22551C0
:1009C0000748FFF791FE01210548FFF774FE40211B
:1009D0000348FFF767FE06B010BD000000080140A5
:1009E0000044004010B586B0044601210820FFF7FE
:1009F000ADFC01218804FFF7A9FC18208DF8170031
:100A00004FF48060ADF8140003208DF8160005A99E
:100A10001F48FFF7C4FB04208DF817004002ADF813
:100A2000140003208DF8160005A91948FFF7B7FB3D
:100A300001940020ADF80800ADF80A00ADF80C00F4
:100A40000C20ADF80E004FF48070ADF8100001A935
:100A50001048FFF76FFE01208DF803008DF80100AC
:100A60008DF8020027208DF800006846FFF72CFC67
:100A7000012240F225510748FFF736FE01210548C3
:100A8000FFF719FE40210348FFF70CFE06B010BD2A
:100A9000000C0140004800407047704710B5064800
:100AA000006810B94FF0FF3010BD04210348FFF774
:100AB00001FC0020F8E700001C00002000080140B5
:100AC00010B50648006810B94FF0FF3010BD042182
:100AD0000348FFF7F1FB0020F8E700001C000020AE
:100AE0000008014008B501210420FFF72FFC102069
:100AF0008DF803000420ADF8000003208DF80200FB
:100B000069460448FFF74BFB0120034908600020B9
:100B100008BD0000000801401C00002010B5064878
:100B2000006810B94FF0FF3010BD03210348FFF7F4
:100B3000C1FB0020F8E70000180000200008014079
:100B400010B50648006810B94FF0FF3010BD032102
:100B50000348FFF7B1FB0020F8E700001800002071
:100B60000008014008B501210420FFF7EFFB102029
:100B70008DF803000320ADF800008DF802006946EF
:100B80000348FFF70CFB012002490860002008BD64
:100B9000000801401800002070B505460C46002DE5
:100BA00001DB052D00DB70BD194850F82500012838
:100BB00000D1F8E7052D22D2DFE805F003090F1573
:100BC0001B002046FFF75AFE1248046018E020463A
:100BD000FFF7AEFE0F48446012E02046FFF702FF29
:100BE0000C4884600CE02046FFF756FF0948C460BB
:100BF00006E02046FFF751FF0648046100E0D2E717
:100C000000BF0120024941F8250000BFCBE70000EA
:100C1000340400204804002000BFFFF785FC43F6A1
:100C200060310020FFF7B8FF13E00AA11648FFF774
:100C300007FEFFF745FFFFF783FF4FF47A70FFF7DA
:100C40007DFCFFF72BFFFFF769FF4FF47A70FFF78A
:100C500075FCEAE7435461736B2069732052756E2B
:100C60006E696E672E0A2D2D2D2D2D2D2D2D2D2DDE
:100C70002D2D2D2D2D2D2D2D2D2D2D2D2D2D2D2DA4
:100C80002D2D2D2D2D2D0A0000380140AC0C000813
:100C900000000020200000005C080008CC0C0008C8
:100CA00020000020400800006C0800080000000040
:100CB00001020304010203040607080902040608EE
:0C0CC00000000000000000000000000028
:0400000508000131BD
:00000001FF
