:020000040800F2
:10000000C89C0020DD01000805040008FD0300086D
:1000100001040008CD020008A70800080000000045
:100020000000000000000000000000004501000882
:10003000DD0200080000000089010008A306000896
:10004000F7010008F7010008F7010008F7010008B0
:10005000F7010008F7010008F7010008F7010008A0
:10006000F7010008F7010008F7010008F701000890
:10007000F7010008F7010008F7010008F701000880
:10008000F7010008F7010008F7010008F701000870
:10009000F7010008F7010008F7010008F701000860
:1000A000F7010008F7010008F7010008F701000850
:1000B000F7010008F7010008F7010008F701000840
:1000C000F7010008F7010008F7010008F701000830
:1000D000F70100080D070008F7010008F701000804
:1000E000F7010008F7010008F7010008F701000810
:1000F000F7010008F7010008F7010008F701000800
:10010000F7010008F7010008F7010008F7010008EF
:10011000F7010008F7010008F7010008F7010008DF
:10012000F7010008F7010008F7010008F7010008CF
:10013000DFF80CD000F09AF800480047590E00088C
:10014000C89C0020224B19680868B0E8F00F80F3C3
:100150000988BFF36F8F4FF0000080F311884EF0D5
:100160000D0E70470000000006480068006880F32C
:10017000088862B661B6BFF34F8FBFF36F8F00DFA1
:1001800000BF00BF08ED00E0EFF30980BFF36F8F01
:100190000F4B1A6820E9F00F106008B54FF05000BF
:1001A00080F31188BFF34F8FBFF36F8F01F0E2FF31
:1001B0004FF0000080F31188BDE808401968086816
:1001C000B0E8F00F80F30988BFF36F8F704700BF6E
:1001D00050000020EFF3058070470000064880477C
:1001E00006480047FEE7FEE7FEE7FEE7FEE7FEE71C
:1001F000FEE7FEE7FEE7FEE7AD0600083101000876
:1002000010B5431A934209D28318881803E010F8F6
:10021000011D03F8011D521EF9D210BD40EA010371
:100220009B0703D009E008C9121F08C0042AFAD2AC
:1002300003E011F8013B00F8013B521EF9D210BD5A
:1002400030B50B46014600202022012409E021FAA6
:1002500002F59D4205D303FA02F5491B04FA02F5A3
:100260002844151EA2F10102F1DC30BD064C074DF9
:1002700006E0E06840F0010394E807009847103476
:10028000AC42F6D3FFF758FFFC2E00081C2F0008E5
:1002900011E000F045FD4FF4FA7001F0F7FD06A003
:1002A00000F004FB00F02AFD4FF4FA7001F0EEFDBF
:1002B00001A000F0FBFAECE772756E6E696E677E66
:1002C0007E7E7E7E7E7E7E7E7E0D0A0000BFFEE705
:1002D00010B54FF4A06000F0CFF810BD70472DE9C5
:1002E000F0410246002500260020002300240027BC
:1002F00091F803C00CF00F0591F803C00CF0100C3E
:10030000BCF1000F03D091F802C04CEA050591F84A
:1003100000C0BCF1000F31D0146800202BE04FF07A
:10032000010C0CFA00F3B1F800C00CEA03069E427F
:1003300020D183004FF00F0C0CFA03F7BC4305FAF1
:1003400003FC4CEA040491F803C0BCF1280F06D169
:100350004FF0010C0CFA00FCC2F814C00AE091F84E
:1003600003C0BCF1480F05D14FF0010C0CFA00FCA2
:10037000C2F810C0401C0828D1D31460B1F800C0E6
:10038000BCF1FF0F34DD546800202EE000F1080CB2
:100390004FF0010808FA0CF3B1F800C00CEA0306AC
:1003A0009E4221D183004FF00F0C0CFA03F7BC439F
:1003B00005FA03FC4CEA040491F803C0BCF1280FD1
:1003C00005D100F1080C08FA0CF8C2F8148091F875
:1003D00003C0BCF1480F07D100F1080C4FF0010831
:1003E00008FA0CF8C2F81080401C0828CED35460DC
:1003F000BDE8F081416170470161704700BFFEE7D1
:1004000000BFFEE77047000070B5002100230F22F7
:10041000C47804B3154C246804F4E064C4F5E064C3
:10042000210AC1F10403CA40447804FA03F1847834
:100430001440214309010E4C0678A155047804F0BC
:100440001F050124AC4005786D11AD0005F1E025D4
:10045000C5F8004109E0047804F01F050124AC4010
:10046000044D0678761145F8264070BD0CED00E08D
:1004700000E400E080E100E002490143024A11602B
:10048000704700000000FA050CED00E029B1064AB3
:10049000D2690243044BDA6104E0034AD269824321
:1004A000014BDA61704700000010024029B1064A92
:1004B00092690243044B9A6104E0034A92698243C1
:1004C000014B9A61704700000010024030B50021D6
:1004D0000022002400232D4D6D6805F00C0121B190
:1004E000042905D0082923D105E0294D056022E023
:1004F000274D05601FE0254D6D6805F47012234DF2
:100500006D6805F48034022505EB92421CB9214D3B
:10051000554305600BE01D4D6D6805F400351DB1B8
:100520001C4D5543056002E0194D5543056002E03E
:10053000174D056000BF00BF144D6D6805F0F00158
:100540000909154D6B5C0568DD4045600F4D6D6810
:1005500005F4E061090A104D6B5C4568DD4085607B
:100560000A4D6D6805F46051C90A0B4D6B5C456816
:10057000DD40C560054D6D6805F44041890B074DB0
:100580006B5CC568B5FBF3F5056130BD001002403A
:1005900000127A0000093D00000000201000002039
:1005A00010B500F001F810BD0CB5002001900090CE
:1005B0003348006840F480303149086000BF30485B
:1005C000006800F4003000900198401C01900098F1
:1005D00018B90198B0F5A06FF1D12948006800F46E
:1005E000003010B10120009001E000200090009840
:1005F000012843D12348006840F0100021490860D9
:100600000846006820F0030008600846006840F0D3
:10061000020008601A484068194948600846406866
:1006200048600846406840F480604860084640687A
:1006300020F47C1048600846406840F4E8104860A8
:100640000846006840F08070086000BF0C480068F1
:1006500000F000700028F9D00948406820F003003D
:10066000074948600846406840F00200486000BF03
:100670000348406800F00C000828F9D10CBD0000C8
:10068000001002400020024010B5FFF721FE4FF499
:10069000E131002000F07EFB00F054FB00F012FB83
:1006A00010BD10B501F00AFE10BD000010B51348D2
:1006B000006840F001001149086008464068104990
:1006C00008400E494860084600680E4908400B493A
:1006D00008600846006820F48020086008464068EA
:1006E00020F4FE0048604FF41F008860FFF758FFB9
:1006F0004FF000600449086010BD00000010024087
:100700000000FFF8FFFFF6FE08ED00E010B5002442
:1007100006E0074800F0C2F8C4B2204601F0E2F952
:100720002021034800F01BF80028F2D110BD000082
:100730000038014001F40072B2F5007F00D100BF23
:10074000CA430280704721B1828942F400528281FB
:1007500004E082894DF6FF731A4082817047024699
:100760000020B1F5007F00D100BF13880B400BB112
:10077000012000E000207047F0B503460024002669
:100780000025002040F66A17B94200D100BF184684
:10079000C1F3421401F01F06012707FA06F5012CE8
:1007A00001D10C3004E0022C01D1103000E01430F3
:1007B0001AB107682F43076002E00768AF4307607C
:1007C000F0BD00002DE9F04786B005460E46002436
:1007D000A24600BFA1460027B08900B100BF2F4646
:1007E0002C8A4CF6FF700440F08804432C82AC89BC
:1007F0004EF6F3100440B0883189084371890843EC
:100800000443AC81AC8A4FF6FF400440B0890443F6
:10081000AC8201A8FFF75AFE1F48874202D1DDF8DB
:1008200010A001E0DDF80CA0A88900F4004040B160
:100830000AEBCA0000EB0A1031684900B0FBF1F87E
:1008400007E00AEBCA0000EB0A1031688900B0FB30
:10085000F1F86420B8FBF0F004012009642101FBE9
:100860001089A88900F4004040B1322000EBC90093
:10087000B0FBF1F000F00700044308E0322000EB89
:1008800009106421B0FBF1F000F00F0004432C814B
:1008900006B0BDE8F08700000038014001468888B6
:1008A000C0F30800704700BFFEE700000FB4054B1F
:1008B00010B503A9044A029800F018F810BC5DF8BE
:1008C00014FB0000790D00084C00002002E008C86D
:1008D000121F08C1002AFAD170477047002001E0BA
:1008E00001C1121F002AFBD1704700002DE9FF4F04
:1008F0008BB09A460F460546002606E025280BD009
:1009000052460D9990476D1C761C28780028F5D129
:100910000FB03046BDE8F08F0024A04601226049A8
:1009200000E0044315F8013F203B02FA03F00842BF
:10093000F7D128782E2817D115F8010F44F00404B8
:100940002A280ED06FF02F022878A0F13001092953
:100950000AD808EB880102EB410100EB01086D1C8D
:10096000F2E757F8048B6D1C287869283ED006DC26
:100970000028CDD063280BD0642804D136E073283A
:1009800010D075284BD052460D999047761C85E0C3
:1009900017F8040B8DF8000000208DF80100E946DF
:1009A000012003E057F8049B4FF0FF3061074FF040
:1009B000000401D40AE0641C44450DDA8442FADBE9
:1009C00019F804100029F6D106E0641C8442FCDB0F
:1009D00019F804100029F8D1264404E019F8010B95
:1009E00052460D999047641EF8D257E001CF4FF060
:1009F0000A0B002802DA40422D2102E0210504D52D
:100A00002B218DF82410012103E0E10705D02021DE
:100A1000F7E70DF1200908910CE00021F9E701CF7B
:100A20004FF00A0BF9E75946FFF70AFC01F13002D3
:100A300009F8012D0028F6D1ADEB090000F1200BDB
:100A4000600701D44FF00108D84502DDA8EB0B0088
:100A500000E000208046002406E009A85246005D20
:100A60000D999047641C761C08988442F5DB04E0DD
:100A7000302052460D999047761CB8F10001A8F13C
:100A80000108F5DC05E019F8010B52460D99904775
:100A9000761CBBF10001ABF1010BF4DC6D1C34E7FB
:100AA0000928010010B586B0044601210420FFF793
:100AB000FDFC01218803FFF7F9FC18208DF81700D1
:100AC0004FF40070ADF8140003208DF8160005A94E
:100AD0001F48FFF704FC04208DF817000002ADF852
:100AE000140003208DF8160005A91948FFF7F7FB3D
:100AF00001940020ADF80800ADF80A00ADF80C0034
:100B00000C20ADF80E004FF48070ADF8100001A974
:100B10001048FFF757FE01208DF803008DF8010003
:100B20008DF8020025208DF800006846FFF76CFC68
:100B3000012240F225510748FFF71EFE012105481A
:100B4000FFF701FE40210348FFF7F4FD06B010BD9A
:100B5000000801400038014010B586B0044601216C
:100B60000420FFF7A3FC01214804FFF79FFC182095
:100B70008DF817000420ADF8140003208DF816003E
:100B800005A92048FFF7ABFB04208DF817000820CB
:100B9000ADF8140003208DF8160005A91948FFF7D9
:100BA0009EFB01940020ADF80800ADF80A00ADF8F6
:100BB0000C000C20ADF80E004FF48070ADF8100062
:100BC00001A91148FFF7FEFD01208DF803008DF803
:100BD00001008DF8020026208DF800006846FFF71E
:100BE00013FC012240F225510748FFF7C5FD012102
:100BF0000548FFF7A8FD40210348FFF79BFD06B01D
:100C000010BD0000000801400044004010B586B04F
:100C1000044601210820FFF749FC01218804FFF761
:100C200035FC18208DF817004FF48060ADF81400E3
:100C300003208DF8160005A91F48FFF750FB04207C
:100C40008DF817004002ADF8140003208DF816004F
:100C500005A91948FFF743FB01940020ADF80800EF
:100C6000ADF80A00ADF80C000C20ADF80E004FF402
:100C70008070ADF8100001A91048FFF7A3FD012016
:100C80008DF803008DF801008DF8020027208DF803
:100C900000006846FFF7B8FB012240F225510748E3
:100CA000FFF76AFD01210548FFF74DFD402103488C
:100CB000FFF740FD06B010BD000C014000480040A9
:100CC0007047704708B501210420FFF7EFFB1020A3
:100CD0008DF803000420ADF8000003208DF8020019
:100CE00069460448FFF7FBFA012003490860002029
:100CF00008BD0000000801402C00002010B5064887
:100D0000006810B94FF0FF3010BD03210348FFF712
:100D100071FB0020F8E700002800002000080140D7
:100D200010B50648006810B94FF0FF3010BD032120
:100D30000348FFF761FB0020F8E7000028000020CF
:100D40000008014008B501210420FFF7AFFB102087
:100D50008DF803000320ADF800008DF8020069460D
:100D60000348FFF7BCFA012002490860002008BDD3
:100D7000000801402800002070B504460D460A2CEA
:100D800003D10D21002000F045F8E1B2002000F071
:100D900041F870BD70B505460C46002D01DB052DF0
:100DA00000DB70BD194850F82500012800D1F8E794
:100DB000052D22D2DFE805F003090F151B002046A0
:100DC000FFF770FE1248046018E02046FFF7C4FEEB
:100DD0000F48446012E02046FFF718FF0C4884607B
:100DE0000CE02046FFF76CFF0948C46006E020468F
:100DF000FFF767FF0648046100E0D2E700BF01206B
:100E0000024941F8250000BFCBE70000C8040020DC
:100E1000DC040020024600230D4850F8220008B9E7
:100E2000581E7047002A01DB052A02DB4FF0FF3015
:100E3000F7E700BF074850F82200008800F0800064
:100E40000028F7D0034850F8220081801846E8E7D0
:100E5000C8040020380000201CB50124FFF714FC52
:100E60000A48012100234A02CDE9001008A10A48DE
:100E700001F06EFD0446012C02D101F01DF902E0E3
:100E80004FF0FF301CBD00BFFEE70000C400002093
:100E90004170705461736B00910200082DE9F041BC
:100EA00005460E461C4807681C480068001D00F0F7
:100EB0003FFE50B91948006890F82C100120884076
:100EC00017490968814316480160681C38B936B172
:100ED00012480168091D134800F068FE1AE07C19E9
:100EE0000E4800684460BC4207D20C480168091DE6
:100EF0000D48006800F040FE0CE008480168091D3C
:100F00000A48006800F038FE09480068844201D2AF
:100F100007480460BDE8F081640000205000002014
:100F2000680000208808002058000020540000209D
:100F30008000002010B5044600F044FE23480068FD
:100F4000401C224908602248006840B920480460DB
:100F50000846006801280DD100F0E4F90AE01D48B8
:100F6000006838B91A480068C06AE16A884201D846
:100F70001748046018480068401C1749086094F836
:100F80002C1001208840154909680843134908605E
:100F9000E16A01EB8101124A02EB8100211D00F0A0
:100FA00005FE00F04FFE0B48006868B10848006875
:100FB000C06AE16A884207D24FF080500949086050
:100FC000BFF34F8FBFF36F8F10BD00006000002094
:100FD000500000206C0000207C00002068000020F1
:100FE000B805002004ED00E010B500F0EBFD10485E
:100FF0000068D0B90F4800F0AFFD0F4800F0ACFD1D
:101000000C480E4908600C480D49086000220C216C
:101010000A2001F06DF9064908600846006820B111
:1010200008A10348006800F0F5FE00F00BFE10BDBB
:10103000940000209C080020B00800208C000020B4
:1010400090000020546D72510000000070B523E044
:1010500001F088F81348006808B9012000E000207A
:10106000054601F031FEBDB900F0ACFD0D48C06889
:10107000C468201D00F05CFD0B480068401E0A4952
:1010800008600A480068401E0849086000F0DAFD60
:10109000204600F060F800BF044800680028D7D15F
:1010A00070BD000074080020600000205C0000207B
:1010B00070B504460D46206C70B1216CE0680844A0
:1010C000E0606168E068884201D32068E0602846FB
:1010D000226CE168FFF794F870BD2DE9F0410446F9
:1010E0000F4615464FF00008A66B206C40B92068EB
:1010F00060BB606801F022FD80460020606025E052
:101100007DB93946226CA068FFF77AF8216CA06897
:101110000844A060D4E90110884217D32068A06079
:1011200014E03946226CE068FFF76AF8216CE06849
:10113000401AE0602168E068884203D2216C606850
:10114000401AE060022D01D106B1761E701CA0632A
:101150004046BDE8F08110B50446206B00F0A6FDC6
:10116000204600F0A3FD10BD0146084A126812682F
:101170000AB9012200E000220A600A6822B9034A83
:101180001268D268106800E0002070478C000020D0
:1011900030B54FF41043174800F007042CB1C01DC0
:1011A00020F00700134C041B1B1B0246124C22604C
:1011B0000024114D6C60D018083820F007000F4C47
:1011C000206000240D4D2D686C600C4D2D682C6046
:1011D0001146441A4C60094C24680C60084D4C6858
:1011E0002C60084D4C682C604FF00044064D2C607C
:1011F00030BD0000C4080020A0000020A80000208E
:10120000B0000020AC000020B400002000BFFFF7B9
:101210001DFF064800680128F9D94FF080500449A5
:101220000860BFF34F8FBFF36F8FF0E7B805002062
:1012300004ED00E02DE9F04106460D4617469846BC
:10124000069C0DB9246000E02760E6632564012157
:10125000204601F06BF90020A064BDE8F081000099
:101260002DE9FF5F81460F469246DDE90E6B109C2B
:10127000AAF10100216B01EB800828F0070808F0B3
:10128000070008B9012000E0002028B940F22B3205
:101290001BA120A0FFF70AFB002507E0795D04F100
:1012A00034004155785D00B902E06D1C102DF5D376
:1012B00000BF002143200155202E00D31F26E662E7
:1012C00066640020A064201D00F053FC04F11800A7
:1012D00000F04FFC2461C6F12000A0616462002090
:1012E000E06484F8500049464046039A00F0E8FB69
:1012F0002060BBF1000F01D0CBF80040BDE8FF9F9C
:101300002E2E5C52544F535C7372635C7461736B2A
:10131000732E63004572726F723A25732C25640D2B
:101320000A00000010B5002407E004EB84010F4A16
:1013300002EB810000F010FC641C202CF5D30C485B
:1013400000F00AFC0B4800F007FC0B4800F004FC1E
:101350000A4800F001FC0A4800F0FEFB0448094975
:10136000086004480849086010BD0000B805002066
:10137000380800204C080020600800207408002075
:1013800088080020540000205800002010B50146B5
:10139000164800E0006803688B42FBD302464368AE
:1013A00013448B4204D143684C6823444360014694
:1013B0000A464B6813440468A34211D10C4C0368DD
:1013C0002468A34208D04B680468646823444B60D7
:1013D00003681B680B6005E0054B1B680B6001E0B0
:1013E00003680B60884200D0016010BDA00000209F
:1013F000A80000202DE9F04104460D4616461F4680
:101400004FF0000865602461B5420CD8F01BA1695B
:10141000884202D34FF0010811E0211D09480068FD
:1014200000F0AAFB0BE0BE4204D2BD4202D34FF053
:10143000010804E0211D0448006800F09DFB4046BF
:10144000BDE8F081900000208C00002070B50546BA
:1014500000F0B8FBA86B08B9012400E0002400F0FC
:10146000F1FB204670BD70B5054600F0ABFBA86BE4
:10147000E96B884201D1012400E0002400F0E2FB86
:10148000204670BD2DE9F3410D460098846C00277D
:101490002CB940F6CE121AA11EA0FFF707FAA06BD6
:1014A000E16B884201D2012000E0002028B940F61B
:1014B000CF1213A117A0FFF7F9F9A06BE16B8842D7
:1014C0001BD294F945602A4669462046FFF705FE7F
:1014D0000746701C60B9606A08B9012000E000206E
:1014E00050B904F1240001F095FB28B1012703E075
:1014F000701C40B284F8450000BF3846BDE8FC814E
:101500002E2E5C52544F535C7372635C717565751B
:10151000652E63004572726F723A25732C25640D37
:101520000A000000F8B505460F4613480068C06879
:10153000C468201D00F0FCFAE069012818D1A069F8
:1015400041192B463A462046FFF754FF80B1002050
:1015500003462A4601460090204601F07FFC0646DD
:101560002EB94FF4027205A10AA0FFF79FF900BF40
:101570002046616A8847F8BD8C0000202E2E5C5200
:10158000544F535C7372635C74696D6572732E6340
:10159000000000004572726F723A25732C25640DAD
:1015A0000A00000070B586B060E0039800285DDB9B
:1015B000059C606908B9012000E0002010B9201DD9
:1015C00000F0B6FA02A800F0C7F8054603980A280A
:1015D0004AD2DFE800F00905072C2E4506082D2F1A
:1015E00000BF00BF00BF00BF0498A2698118034676
:1015F0002A462046FFF7FEFEC0B12046616A8847B2
:10160000E069012812D1002000900498A1694218D5
:1016100000231946204601F021FC06462EB940F26F
:10162000213218A11DA0FFF741F900BF1DE000BF46
:101630001BE000BF0498A061A06908B1012000E090
:10164000002028B94FF44E720EA114A0FFF72EF916
:10165000A06941192B462A462046FFF7CBFE04E03D
:10166000204600F023FB00E000BF00BF00231A4625
:1016700003A90E48006800F075FE002895D106B059
:1016800070BD00002E2E5C52544F535C7372635C2D
:1016900074696D6572732E63000000004572726F8D
:1016A000723A25732C25640D0A0000009400002076
:1016B000F8B505460C4600F055FD684600F04CF8BC
:1016C0000646009820BB44B9B54206D801F0FCFAA2
:1016D00031462846FFF726FF1CE03CB10E48006863
:1016E000006808B9012000E000200446A91B22463A
:1016F0000A48006800F0A4FB01F0E6FA50B94FF088
:10170000805007490860BFF34F8FBFF36F8F01E030
:1017100001F0DAFAF8BD00009000002094000020EB
:1017200004ED00E00A490968096809B9012100E0EF
:10173000002121B14FF0FF31064A116006E0044953
:101740000968C968C868034A4168116070470000A9
:10175000540000208000002070B5044601F038F9E4
:10176000054607480068854204D200F00BF80120C6
:10177000206001E00020206001480560284670BD1F
:101780009C0000202DE9F8432DE021480068C06846
:1017900005681F480068C068C468201D00F0C8F9CB
:1017A0002046616A8847E06901281CD1A069461972
:1017B000AE4207D966602461211D1548006800F01B
:1017C000DBF910E0002003462A460146009020463F
:1017D00001F044FB07462FB940F292320DA113A04D
:1017E000FFF764F800BF0A480068006808B90120E4
:1017F00000E000200028C8D00548D0F800800F483D
:101800000068034908600D48C0F80080BDE8F8830F
:101810008C0000202E2E5C52544F535C7372635C1C
:1018200074696D6572732E63000000004572726FFB
:10183000723A25732C25640D0A00000090000020E8
:101840000B480068401C08B9012000E0002020B9C6
:10185000F42208A110A0FFF729F800BF502080F360
:101860001188BFF34F8FBFF36F8F00BF00BFFEE73C
:10187000B80000202E2E5C52544F535C706F72746F
:101880005C525644535C41524D5F434D335C706F24
:1018900072742E63000000004572726F723A2573F5
:1018A0002C25640D0A00000008B500BF6846FFF74C
:1018B0005BFC044620460099FFF7FAFEFFF772FE34
:1018C000F4E770B5044600F07DF994F945501AE04C
:1018D000A06C38B100212046FFF7D4FD88B100F09C
:1018E0000FFB0EE0606A08B9012000E0002038B963
:1018F00004F1240001F08EF918B100F001FB00E0C2
:1019000003E0681E45B2002DE2DC00BFFF2084F832
:10191000450000F097F900F055F994F9445010E0B3
:10192000206908B9012000E0002048B904F1100046
:1019300001F070F908B100F0E3FA681E45B200E06A
:1019400001E0002DECDC00BFFF2084F8440000F033
:1019500079F970BD2DE9F04104464FF0000800F020
:1019600001FC3E48006808B9FFF712FC3C480068DB
:10197000204000285FD1A4B1083404F0070080B1F2
:1019800004F00700C0F10800044404F0070008B99F
:10199000012000E0002020B9BF2232A139A0FEF7CB
:1019A00085FF002C47D03B480068844243D83A4E1C
:1019B0003046056801E02E462D686868A04202D2D4
:1019C00028680028F7D125480068854233D0306860
:1019D00000F10808286830606868001B102813D9D7
:1019E0002F1907F0070008B9012000E0002020B9F6
:1019F000EC221CA123A0FEF759FF6868001B786049
:101A00006C603846FFF7C2FC224968680968081A0A
:101A1000204908600846006820490968884203D2C6
:101A20001C4800681D4908600D496868096808433A
:101A300068600020286001F047F908F0070008B945
:101A4000012000E0002028B94FF4967205A10DA0F6
:101A5000FEF72CFF4046BDE8F0810000A800002002
:101A6000B40000202E2E5C52544F535C706F727481
:101A70005C4D656D4D616E675C686561705F342EAD
:101A8000630000004572726F723A25732C25640D55
:101A90000A000000AC000020A0000020B0000020E0
:101AA0000648006830B10549096801F14800896CB1
:101AB000491C016001480068704700005000002088
:101AC000001F4FF080730360001F21F001030360CB
:101AD000001F034B03601438026020387047000079
:101AE0004118000801460F4A1268501CC21700EB4B
:101AF00092529212A0EB82220B4B1B689A420FD09B
:101B0000084A1068421C074B1A60084A11541A46CA
:101B10001068C21700EB92529212A0EB82221A6058
:101B2000704700003000002034000020C800002072
:101B300001460A69D1E901309860D1E90103586092
:101B40005068884201D188685060002008611068A0
:101B5000401E10601068704700F1080141604FF0AE
:101B6000FF31816000F10801C16001610021016065
:101B7000704700210161704710B502460B685C1C7C
:101B80000CB9106907E002F1080000E04068446801
:101B900024689C42FAD944684C604C68A160886013
:101BA00041600A611468641C146010BD42684A6098
:101BB00093688B60936859609160086103685B1C4F
:101BC0000360704710B500BF502080F31188BFF349
:101BD0004F8FBFF36F8F00BF0B480068401C0A494E
:101BE00008600846006801280DD108480068C0B2A6
:101BF00008B9012000E0002028B94FF4BD7204A10B
:101C00000CA0FEF753FE10BDB800002004ED00E06C
:101C10002E2E5C52544F535C706F72745C5256445B
:101C2000535C41524D5F434D335C706F72742E6351
:101C3000000000004572726F723A25732C25640D06
:101C40000A00000010B50B48006828B940F2811264
:101C500009A112A0FEF72AFE06480068401E0549A9
:101C600008600846006820B9002080F3118800BF92
:101C700000BF10BDB80000202E2E5C52544F535CA4
:101C8000706F72745C525644535C41524D5F434DC9
:101C9000335C706F72742E63000000004572726FC7
:101CA000723A25732C25640D0A00000070B50646B3
:101CB0003546002E35D0083D2C461A496068096823
:101CC000084008B1012000E0002028B94FF4A072BC
:101CD00015A11DA0FEF7EAFD206808B9012000E06B
:101CE000002028B940F241120FA117A0FEF7DEFD37
:101CF0000C4960680968084098B1206888B90949AA
:101D0000606809688843606000F02CFA12496068D6
:101D100009680844104908602046FFF737FB00F0C7
:101D2000D3FF70BDB40000202E2E5C52544F535C84
:101D3000706F72745C4D656D4D616E675C68656156
:101D4000705F342E630000004572726F723A257323
:101D50002C25640D0A000000AC0000200648006835
:101D60004FF47A71B0FBF1F0401E4FF0E021486172
:101D700007200861704700001400002070B5FEF7CE
:101D800029FA0546102D11D305F1E02090F8F04313
:101D900010480078844201DB012000E0002028B9CF
:101DA0004FF42A720CA115A0FEF780FD17480068B9
:101DB00000F4E06016490968884201D8012000E07B
:101DC000002028B94FF42E7203A10CA0FEF76EFD7F
:101DD00070BD0000BC0000202E2E5C52544F535C9E
:101DE000706F72745C525644535C41524D5F434D68
:101DF000335C706F72742E63000000004572726F66
:101E0000723A25732C25640D0A0000000CED00E0E9
:101E1000C0000020024600200BE0084B53F8303091
:101E200033B9064B43F8301003EBC0035A6002E0AD
:101E3000401C1928F1D300BF70470000F0040020B7
:101E40002DE9F04105460E4617462C46FFF7BAFE2F
:101E500094F94400401C10B9002084F8440094F91F
:101E60004500401C10B9002084F84500FFF7EAFE49
:101E7000A06B28B93A46314604F1240000F070F80E
:101E80002046FFF71EFDBDE8F081000070B5044656
:101E90000025ACB10F48006808B9012000E000201F
:101EA00028B940F2CF420CA110A0FEF7FFFC00F0D1
:101EB00059F900212046FEF7F1FF00F005FF054625
:101EC0003DB94FF080500D490860BFF34F8FBFF30D
:101ED0006F8F70BD880000202E2E5C52544F535CD3
:101EE0007372635C7461736B732E63004572726FFF
:101EF000723A25732C25640D0A00000004ED00E001
:101F000001200149086070477400002070B5044644
:101F10000D462CB940F6063207A10CA0FEF7C6FC10
:101F20000E48016818312046FFF726FE0121284699
:101F3000FEF7B4FF70BD00002E2E5C52544F535C70
:101F40007372635C7461736B732E63004572726F9E
:101F5000723A25732C25640D0A0000005000002001
:101F600070B505460E4614462DB940F6313209A12A
:101F70000DA0FEF79BFC1048016818312846FFF7BA
:101F800015FE0CB14FF0FF3621463046FEF786FFB6
:101F900070BD00002E2E5C52544F535C7372635C14
:101FA0007461736B732E63004572726F723A25739E
:101FB0002C25640D0A0000005000002070B5054675
:101FC0002C46002D4BD02649E06A0968C96A884230
:101FD00045D2A06900F0004028B921480068C06AD5
:101FE000C0F12000A061E16A01EB81011D4A02EB12
:101FF00081016069884201D1012000E0002050B3D6
:10200000201DFFF795FD78B9E06A00EB80001549C7
:1020100051F8200040B994F82C1001208840124952
:1020200009688143104801600D480068C06AE06299
:1020300094F82C10012088400B49096808430A498C
:102040000860E16A01EB8101064A02EB8100211D73
:10205000FFF7ACFD03E002480068C06AE06270BDB3
:1020600050000020B80500206800002010B504468C
:102070002CB940F6C13205A109A0FEF717FC0C48A7
:10208000006820600B480068606010BD2E2E5C5216
:10209000544F535C7372635C7461736B732E630093
:1020A0004572726F723A25732C25640D0A00000088
:1020B00078000020640000201CB51A4800210B465F
:1020C0008022CDE9001018A1194800F041FC044617
:1020D000012C02D100F088FE0446012C15D100BF6E
:1020E000502080F31188BFF34F8FBFF36F8F00BF75
:1020F0004FF0FF300F49086001200F4908600020B1
:102100000E49086000F08AF80BE0601C08B101205D
:1021100000E0002028B940F2847209A10DA0FEF76A
:10212000C5FB1CBD8400002049444C450000000054
:102130000D120008800000206C00002064000020C8
:102140002E2E5C52544F535C7372635C7461736BDC
:10215000732E63004572726F723A25732C25640DDD
:102160000A00000002480068401C014908607047EE
:102170008800002010B51B48006818B101201A49DA
:1021800008602DE000201849086018480068B0FA7F
:1021900080F0C0F11F0404EB8400154951F82000C1
:1021A00008B1012000E0002028B940F6F62211A174
:1021B00015A0FEF77BFB04EB84010D4A02EB8100C6
:1021C00041684968416000F1080142688A4202D1D1
:1021D0004168496841604168C9680F4A116000BFA1
:1021E00010BD00008800002074000020680000205E
:1021F000B80500202E2E5C52544F535C7372635C02
:102200007461736B732E63004572726F723A25733B
:102210002C25640D0A000000500000201CB5224847
:10222000014609780191FF210246117001460978A3
:1022300000919DF8001001F050011C4A1170072117
:102240001B4A116009E01A490968491E184A1160C1
:102250009DF800104906090E00919DF8001001F04C
:1022600080018029EFD0124909680902104A1160E3
:102270001146098801F4E06111600B4A019911705F
:102280000C48006840F470000A490860084600687D
:1022900040F070400860FFF761FD002006490860CB
:1022A000FDF762FF00201CBD00E400E0BC00002040
:1022B000C000002020ED00E0B800002010B500BFF5
:1022C000502080F31188BFF34F8FBFF36F8F00BF93
:1022D00000F084FB18B14FF080500449086000BF43
:1022E000002080F3118800BF10BD000004ED00E065
:1022F0002DE9F84305460E4690460DB1012000E059
:10230000002028B94FF4C4720DA112A0FEF7CEFA36
:102310000EB9002701E005FB06F707F14C00FFF7B7
:1023200019FB044644B104F14C0943464A46314680
:1023300028460094FEF77EFF2046BDE8F8830000A3
:102340002E2E5C52544F535C7372635C71756575CD
:10235000652E63004572726F723A25732C25640DE9
:102360000A0000002DE9FF4782B005460E461F46D1
:102370004FF0000A2C462CB940F2DC4261A166A065
:10238000FEF794FA0EB9206C08B9012000E0002095
:1023900028B940F2DD425BA15FA0FEF787FA00F0AA
:1023A00007FB08B9049808B9012000E0002028B90B
:1023B0004FF49C6253A158A0FEF778FA00BFFFF7D4
:1023C00001FCD4F83890B9F1000F3DD0D4F80C805E
:1023D00031462046FEF76CFEDFB9A9F10100A0638B
:1023E000206810B9FFF75CFB6060206908B9012024
:1023F00000E0002010BB04F1100000F00BFCE8B17D
:102400004FF0805048490860BFF34F8FBFF36F8F84
:1024100014E0C4F80C80606A08B9012000E00020D4
:1024200060B904F1240000F0F5FB38B14FF08050A2
:102430003D490860BFF34F8FBFF36F8FFFF702FC7A
:10244000012006B0BDE8F087049818B9FFF7FAFB41
:102450000020F6E7BAF1000F04D16846FFF706FE48
:102460004FF0010AFFF7EEFBFFF77CFEFFF7AAFB38
:1024700094F94400401C10B9002084F8440094F9F9
:102480004500401C10B9002084F84500FFF7DAFB36
:1024900004A9684600F00CFA40BB2046FEF7D6FFC0
:1024A000F0B1206830B9FFF78DFB6068FFF786FD5B
:1024B000FFF7C8FB04F124000499FFF727FD20462D
:1024C000FFF7FFF900F000FC00287FF478AF4FF031
:1024D000805015490860BFF34F8FBFF36F8F6EE7D1
:1024E0002046FFF7EEF900F0EFFB68E72046FFF724
:1024F000E8F900F0E9FB2046FEF7A8FF0028EED03F
:1025000000209EE72E2E5C52544F535C7372635C26
:1025100071756575652E63004572726F723A257329
:102520002C25640D0A00000004ED00E070B505469E
:102530000E462C462CB940F21B121EA122A0FEF71B
:10254000B5F9FFF73FFBD4E90F12206801FB020049
:1025500060600020A0632068A060E06B401E226CD9
:10256000216800FB0210E060FF2084F8440084F83A
:1025700045009EB9206908B9012000E00020A8B9F3
:1025800004F1100000F046FB80B14FF0805012497A
:102590000860BFF34F8FBFF36F8F07E004F11000A7
:1025A000FFF7DAFA04F12400FFF7D6FAFFF74AFB47
:1025B000012070BD2E2E5C52544F535C7372635CCD
:1025C00071756575652E63004572726F723A257379
:1025D0002C25640D0A00000004ED00E02DE9FF4306
:1025E00083B0064688461D464FF0000934462CB994
:1025F00040F2D92260A165A0FEF758F9B8F1000FAA
:1026000001D1206C08B9012000E0002028B940F277
:10261000DA2259A15DA0FEF749F9022D02D1E06B43
:10262000012801D1012000E0002028B940F2DB227E
:1026300051A156A0FEF73AF900F0BAF908B9059889
:1026400008B9012000E0002028B940F2DE224AA1AA
:102650004EA0FEF72BF900BFFFF7B4FAA06BE16BB9
:10266000884201D3022D38D12A4641462046FEF742
:1026700034FD0746A06C68B129462046FEF702FFEC
:1026800028B34FF0805045490860BFF34F8FBFF328
:102690006F8F1CE0606A08B9012000E0002068B973
:1026A00004F1240000F0B6FA88B14FF080503B49A5
:1026B0000860BFF34F8FBFF36F8F08E03FB14FF05B
:1026C000805036490860BFF34F8FBFF36F8FFFF71D
:1026D000B9FA012007B0BDE8F083059818B9FFF7F3
:1026E000B1FA0020F6E7B9F1000F04D101A8FFF715
:1026F000BDFC4FF00109FFF7A5FAFFF733FDFFF727
:1027000061FA94F94400401C10B9002084F8440098
:1027100094F94500401C10B9002084F84500FFF7EB
:1027200091FA05A901A800F0C3F8F0B92046FEF718
:102730009AFEA0B104F110000599FFF7E7FB2046CF
:10274000FFF7BFF800F0C0FA002885D14FF08050A5
:1027500012490860BFF34F8FBFF36F8F7CE72046AD
:10276000FFF7AFF800F0B0FA76E72046FFF7A9F8D8
:1027700000F0AAFA0020ADE72E2E5C52544F535CB5
:102780007372635C71756575652E63004572726F57
:10279000723A25732C25640D0A00000004ED00E058
:1027A0002DE9F05F80468A4615461E4644462CB900
:1027B00040F29F3235A13AA0FEF778F8BAF1000F47
:1027C00001D1206C08B9012000E0002028B94FF4A5
:1027D00068722EA132A0FEF769F8022E02D1E06BDA
:1027E000012801D1012000E0002028B940F2A132E7
:1027F00026A12BA0FEF75AF8FFF7C0FA00BF502120
:10280000EFF3118081F31188BFF34F8FBFF36F8F08
:1028100000BF0746A06BE16B884201D3022E2BD18B
:1028200094F945B0324651462046FEF756FC0BF16E
:102830000100C8B9A06C40B131462046FEF722FE27
:10284000B8B1B5B10120286013E0606A08B9012071
:1028500000E0002068B904F1240000F0DBF940B189
:102860003DB10120286004E00BF1010040B284F882
:1028700045004FF0010901E04FF0000900BF87F368
:10288000118800BF4846BDE8F09F00002E2E5C5224
:10289000544F535C7372635C71756575652E63008C
:1028A0004572726F723A25732C25640D0A00000080
:1028B0002DE9F04104460D462CB940F6CB3219A162
:1028C0001DA0FDF7F3FF2DB940F6CC3215A11AA0DB
:1028D000FDF7ECFFFFF776F91B4807682868401CF6
:1028E00008B9002619E0194920680968884204D00F
:1028F0006068B84201D801260FE06068381A29687C
:10290000884209D228686168791A401A28602046EE
:10291000FFF7ACFB002600E00126FFF793F93046F5
:10292000BDE8F0812E2E5C52544F535C7372635C91
:102930007461736B732E63004572726F723A257304
:102940002C25640D0A00000064000020780000209F
:102950002DE9FF4F85B0804689461746DDE912AB69
:10296000B800FEF7F7FF064656B15420FEF7F2FF17
:1029700004460CB1266304E03046FFF797F900E007
:1029800000247CB10020CDE900ABCDE902403A46FD
:1029900049464046089BFEF763FC2046FEF7CAFA0C
:1029A000012501E04FF0FF35284609B0BDE8F08F62
:1029B0000549096809B9012005E00449096809B910
:1029C000022000E0002070476C00002088000020FA
:1029D0000149086870470000640000202DE9F041BB
:1029E0004FF0000841480068002872D14048006854
:1029F000451C3F480560EDB93E480068006808B9CD
:102A0000012000E0002028B940F6D9123AA13FA0E9
:102A1000FDF74CFF374807684048006835490860B3
:102A20003E4807603E480068401C3D490860FEF78C
:102A300079FE00BF3B48006885423CD300BF2D486B
:102A40000068006808B9012000E0002020B14FF0C4
:102A5000FF30344908602DE026480068C068C4682B
:102A60006668B54202D22F48066023E0201DFFF7BA
:102A70005FF8A06A18B104F11800FFF759F894F84C
:102A80002C1001208840284909680843264908601D
:102A9000E16A01EB8101254A02EB8100211DFFF76C
:102AA00085F82349E06A0968C96A8842C7D34FF0AC
:102AB0000108C4E700BF1E480068C06A00EB800040
:102AC0001A4951F82000012801D94FF0010805E00A
:102AD000FFE718480068401C16490860164800685F
:102AE00008B14FF001084046BDE8F08188000020A1
:102AF00064000020540000202E2E5C52544F535C82
:102B00007372635C7461736B732E63004572726FD2
:102B1000723A25732C25640D0A000000580000202D
:102B2000780000208000002068000020B805002008
:102B300050000020700000207400002070B5054691
:102B40002C460026002D4BD026480068844201D137
:102B5000012000E0002028B940F6C76222A127A08A
:102B6000FDF7A4FEA06C28B940F6C9621EA123A0FF
:102B7000FDF79CFEA06C401EA064616CE06A884278
:102B80002ED0A06C60BB201DFEF7D2FF78B9E06AA2
:102B900000EB80001D4951F8200040B994F82C103A
:102BA000012088401A490968814319480160606C16
:102BB000E062E06AC0F12000A06194F82C100120CE
:102BC000884013490968084311490860E16A01EB2C
:102BD00081010E4A02EB8100211DFEF7E7FF01266D
:102BE000304670BD500000202E2E5C52544F535C76
:102BF0007372635C7461736B732E63004572726FE2
:102C0000723A25732C25640D0A000000B8050020D7
:102C10006800002070B50646F068C4682CB940F61C
:102C200061321AA11EA0FDF741FE04F11800FEF763
:102C30007FFF1F480068A8B9201DFEF779FF94F8B0
:102C40002C10012088401B49096808431949086075
:102C5000E16A01EB8101184A02EB8100211DFEF7B8
:102C6000A5FF04E004F118011448FEF79FFF144982
:102C7000E06A0968C96A884204D90125012011491E
:102C8000086000E00025284670BD00002E2E5C5232
:102C9000544F535C7372635C7461736B732E630087
:102CA0004572726F723A25732C25640D0A0000007C
:102CB0008800002068000020B8050020600800207F
:102CC000500000207400002070B500240026344815
:102CD000006828B94FF4FD6232A137A0FDF7E6FD88
:102CE000FEF770FF2E480068401E2D490860084618
:102CF000006800284FD13448006800284BD024E0F9
:102D00003248C068C46804F11800FEF711FF201DA6
:102D1000FEF70EFF94F82C10012088402C4909681A
:102D200008432B490860E16A01EB8101294A02EB63
:102D30008100211DFEF73AFF2749E06A0968C96A48
:102D4000884202D30120254908602048006808B95C
:102D5000012000E000200028D2D00CB1FEF7E2FCF8
:102D60001F48056865B100BFFFF738FE10B10120AC
:102D70001A4908606D1E002DF6D100201849086020
:102D80001648006838B10126300716490860BFF3BD
:102D90004F8FBFF36F8FFEF755FF304670BD0000B9
:102DA000880000202E2E5C52544F535C7372635C7B
:102DB0007461736B732E63004572726F723A257380
:102DC0002C25640D0A00000060000020600800202F
:102DD00068000020B805002050000020740000208A
:102DE0007000002004ED00E01CB50024FEF7FCF8A4
:102DF0000B48006850B10B4802210023CA01CDE9FD
:102E0000001009A10A48FFF7A3FD04462CB940F2BF
:102E1000331208A10DA0FDF749FD20461CBD00009E
:102E20009400002098000020546D722053766300B7
:102E3000A91800082E2E5C52544F535C7372635CC9
:102E400074696D6572732E63000000004572726FC5
:102E5000723A25732C25640D0A0000002DE9FE430B
:102E600004460D4616461F46DDF828804FF000093F
:102E70002CB94FF4D37216A11BA0FDF717FD1E4805
:102E8000006810B3009501960294062D15DAFFF73D
:102E90008FFD022808D10023424669461648006883
:102EA000FFF79CFB814610E000231A466946124852
:102EB0000068FFF793FB814607E000233A46694626
:102EC0000D480068FFF76CFC81464846BDE8FE836C
:102ED0002E2E5C52544F535C7372635C74696D6543
:102EE00072732E63000000004572726F723A257390
:102EF0002C25640D0A000000940000201C2F0008FF
:102F000000000020C8000000CC080008E42F0008E2
:102F1000C8000020009C0000DC0800080000000041
:102F2000010203040102030406070809020406085B
:102F300000A24A0400000000000000000102030497
:102F40000607080900000000000000000000000063
:102F500000000000003801400044004000480040EC
:102F6000004C004000500040000000000000000045
:102F70000000000000000000000000000000000051
:102F80000000000000000000000000000000000041
:102F90000000000000000000000000000000000031
:102FA0000000000000000000000000000000000021
:102FB0000000000000000000000000000000000011
:102FC0000000000000000000000000000000000001
:102FD00000000000AAAAAAAA000000000000000049
:042FE00000000000ED
:0400000508000131BD
:00000001FF
